{
  "contractName": "Lottery",
  "abi": [
    {
      "inputs": [
        {
          "internalType": "address",
          "name": "_chainlinkPriceFeedAddress",
          "type": "address"
        },
        {
          "internalType": "address",
          "name": "_chainLinkVRFCoordinator",
          "type": "address"
        },
        {
          "internalType": "address",
          "name": "_chainLinkTokenAddress",
          "type": "address"
        },
        {
          "internalType": "uint256",
          "name": "_chainLinkFee",
          "type": "uint256"
        },
        {
          "internalType": "bytes32",
          "name": "_chainLinkKeyHash",
          "type": "bytes32"
        }
      ],
      "stateMutability": "nonpayable",
      "type": "constructor"
    },
    {
      "anonymous": false,
      "inputs": [
        {
          "indexed": false,
          "internalType": "enum Lottery.LotteryState",
          "name": "_lotteryState",
          "type": "uint8"
        },
        {
          "indexed": false,
          "internalType": "string",
          "name": "_message",
          "type": "string"
        }
      ],
      "name": "LotteryClose",
      "type": "event"
    },
    {
      "anonymous": false,
      "inputs": [
        {
          "indexed": false,
          "internalType": "enum Lottery.LotteryState",
          "name": "_lotteryState",
          "type": "uint8"
        },
        {
          "indexed": false,
          "internalType": "string",
          "name": "_message",
          "type": "string"
        }
      ],
      "name": "LotteryFindingWinner",
      "type": "event"
    },
    {
      "anonymous": false,
      "inputs": [
        {
          "indexed": false,
          "internalType": "enum Lottery.LotteryState",
          "name": "_lotteryState",
          "type": "uint8"
        },
        {
          "indexed": false,
          "internalType": "string",
          "name": "_message",
          "type": "string"
        }
      ],
      "name": "LotteryStart",
      "type": "event"
    },
    {
      "anonymous": false,
      "inputs": [
        {
          "indexed": true,
          "internalType": "address",
          "name": "previousOwner",
          "type": "address"
        },
        {
          "indexed": true,
          "internalType": "address",
          "name": "newOwner",
          "type": "address"
        }
      ],
      "name": "OwnershipTransferred",
      "type": "event"
    },
    {
      "anonymous": false,
      "inputs": [
        {
          "indexed": false,
          "internalType": "address",
          "name": "playerAddress",
          "type": "address"
        },
        {
          "indexed": false,
          "internalType": "string",
          "name": "message",
          "type": "string"
        }
      ],
      "name": "SuccessfullyBoughtLotteryTicket",
      "type": "event"
    },
    {
      "inputs": [],
      "name": "owner",
      "outputs": [
        {
          "internalType": "address",
          "name": "",
          "type": "address"
        }
      ],
      "stateMutability": "view",
      "type": "function",
      "constant": true
    },
    {
      "inputs": [
        {
          "internalType": "bytes32",
          "name": "requestId",
          "type": "bytes32"
        },
        {
          "internalType": "uint256",
          "name": "randomness",
          "type": "uint256"
        }
      ],
      "name": "rawFulfillRandomness",
      "outputs": [],
      "stateMutability": "nonpayable",
      "type": "function"
    },
    {
      "inputs": [],
      "name": "renounceOwnership",
      "outputs": [],
      "stateMutability": "nonpayable",
      "type": "function"
    },
    {
      "inputs": [
        {
          "internalType": "address",
          "name": "newOwner",
          "type": "address"
        }
      ],
      "name": "transferOwnership",
      "outputs": [],
      "stateMutability": "nonpayable",
      "type": "function"
    },
    {
      "inputs": [],
      "name": "buyLotteryTicket",
      "outputs": [],
      "stateMutability": "payable",
      "type": "function",
      "payable": true
    },
    {
      "inputs": [],
      "name": "getEntranceFeeInEth",
      "outputs": [
        {
          "internalType": "uint256",
          "name": "",
          "type": "uint256"
        }
      ],
      "stateMutability": "view",
      "type": "function",
      "constant": true
    },
    {
      "inputs": [],
      "name": "lotteryStart",
      "outputs": [],
      "stateMutability": "nonpayable",
      "type": "function"
    },
    {
      "inputs": [],
      "name": "calculateRandomNumber",
      "outputs": [
        {
          "internalType": "bytes32",
          "name": "requestId",
          "type": "bytes32"
        }
      ],
      "stateMutability": "nonpayable",
      "type": "function"
    },
    {
      "inputs": [
        {
          "internalType": "address",
          "name": "_winnerAddress",
          "type": "address"
        }
      ],
      "name": "getWinnerAmount",
      "outputs": [
        {
          "internalType": "uint256",
          "name": "",
          "type": "uint256"
        }
      ],
      "stateMutability": "view",
      "type": "function",
      "constant": true
    },
    {
      "inputs": [],
      "name": "getWinnderAddress",
      "outputs": [
        {
          "internalType": "address[]",
          "name": "",
          "type": "address[]"
        }
      ],
      "stateMutability": "view",
      "type": "function",
      "constant": true
    },
    {
      "inputs": [],
      "name": "getPlayer",
      "outputs": [
        {
          "internalType": "address payable[]",
          "name": "",
          "type": "address[]"
        }
      ],
      "stateMutability": "view",
      "type": "function",
      "constant": true
    }
  ],
  "bytecode": "0x60c06040523480156200001157600080fd5b506040516200288f3803806200288f833981810160405281019062000037919062000274565b83838173ffffffffffffffffffffffffffffffffffffffff1660a08173ffffffffffffffffffffffffffffffffffffffff1660601b815250508073ffffffffffffffffffffffffffffffffffffffff1660808173ffffffffffffffffffffffffffffffffffffffff1660601b815250505050620000c9620000bd6200016160201b60201c565b6200016960201b60201c565b6002600660146101000a81548160ff02191690836002811115620000f257620000f162000344565b5b021790555068056bc75e2d6310000060058190555084600660006101000a81548173ffffffffffffffffffffffffffffffffffffffff021916908373ffffffffffffffffffffffffffffffffffffffff16021790555081600781905550806008819055505050505050620003c6565b600033905090565b6000600160009054906101000a900473ffffffffffffffffffffffffffffffffffffffff16905081600160006101000a81548173ffffffffffffffffffffffffffffffffffffffff021916908373ffffffffffffffffffffffffffffffffffffffff1602179055508173ffffffffffffffffffffffffffffffffffffffff168173ffffffffffffffffffffffffffffffffffffffff167f8be0079c531659141344cd1fd0a4f28419497f9722a3daafe3b4186f6b6457e060405160405180910390a35050565b600081519050620002408162000378565b92915050565b600081519050620002578162000392565b92915050565b6000815190506200026e81620003ac565b92915050565b600080600080600060a0868803121562000293576200029262000373565b5b6000620002a3888289016200022f565b9550506020620002b6888289016200022f565b9450506040620002c9888289016200022f565b9350506060620002dc888289016200025d565b9250506080620002ef8882890162000246565b9150509295509295909350565b600062000309826200031a565b9050919050565b6000819050919050565b600073ffffffffffffffffffffffffffffffffffffffff82169050919050565b6000819050919050565b7f4e487b7100000000000000000000000000000000000000000000000000000000600052602160045260246000fd5b600080fd5b6200038381620002fc565b81146200038f57600080fd5b50565b6200039d8162000310565b8114620003a957600080fd5b50565b620003b7816200033a565b8114620003c357600080fd5b50565b60805160601c60a05160601c61248f62000400600039600081816105a70152610e050152600081816108200152610dc9015261248f6000f3fe60806040526004361061009c5760003560e01c806394985ddd1161006457806394985ddd14610164578063a56b21ae1461018d578063b20d114814610197578063cd8cc844146101c2578063d80c5029146101d9578063f2fde38b146102165761009c565b806305b9a5ba146100a15780633308f42d146100cc578063362669c9146100f7578063715018a6146101225780638da5cb5b14610139575b600080fd5b3480156100ad57600080fd5b506100b661023f565b6040516100c39190611877565b60405180910390f35b3480156100d857600080fd5b506100e16102cd565b6040516100ee9190611899565b60405180910390f35b34801561010357600080fd5b5061010c61035b565b6040516101199190611ac0565b60405180910390f35b34801561012e57600080fd5b506101376104f3565b005b34801561014557600080fd5b5061014e61057b565b60405161015b91906117f0565b60405180910390f35b34801561017057600080fd5b5061018b6004803603810190610186919061135e565b6105a5565b005b610195610641565b005b3480156101a357600080fd5b506101ac61079d565b6040516101b991906118bb565b60405180910390f35b3480156101ce57600080fd5b506101d761098c565b005b3480156101e557600080fd5b5061020060048036038101906101fb9190611304565b610af0565b60405161020d9190611ac0565b60405180910390f35b34801561022257600080fd5b5061023d60048036038101906102389190611304565b610b39565b005b606060048054806020026020016040519081016040528092919081815260200182805480156102c357602002820191906000526020600020905b8160009054906101000a900473ffffffffffffffffffffffffffffffffffffffff1673ffffffffffffffffffffffffffffffffffffffff1681526020019060010190808311610279575b5050505050905090565b6060600280548060200260200160405190810160405280929190818152602001828054801561035157602002820191906000526020600020905b8160009054906101000a900473ffffffffffffffffffffffffffffffffffffffff1673ffffffffffffffffffffffffffffffffffffffff1681526020019060010190808311610307575b5050505050905090565b600080600660009054906101000a900473ffffffffffffffffffffffffffffffffffffffff1673ffffffffffffffffffffffffffffffffffffffff1663313ce5676040518163ffffffff1660e01b815260040160206040518083038186803b1580156103c657600080fd5b505afa1580156103da573d6000803e3d6000fd5b505050506040513d601f19601f820116820180604052508101906103fe9190611446565b90506000600660009054906101000a900473ffffffffffffffffffffffffffffffffffffffff1673ffffffffffffffffffffffffffffffffffffffff1663feaf968c6040518163ffffffff1660e01b815260040160a06040518083038186803b15801561046a57600080fd5b505afa15801561047e573d6000803e3d6000fd5b505050506040513d601f19601f820116820180604052508101906104a291906113cb565b5050509150508160126104b59190611dcc565b600a6104c19190611c54565b816104cc9190611d72565b670de0b6b3a76400006005546104e29190611d72565b6104ec9190611bd0565b9250505090565b6104fb610c31565b73ffffffffffffffffffffffffffffffffffffffff1661051961057b565b73ffffffffffffffffffffffffffffffffffffffff161461056f576040517f08c379a000000000000000000000000000000000000000000000000000000000815260040161056690611a20565b60405180910390fd5b6105796000610c39565b565b6000600160009054906101000a900473ffffffffffffffffffffffffffffffffffffffff16905090565b7f000000000000000000000000000000000000000000000000000000000000000073ffffffffffffffffffffffffffffffffffffffff163373ffffffffffffffffffffffffffffffffffffffff1614610633576040517f08c379a000000000000000000000000000000000000000000000000000000000815260040161062a90611a40565b60405180910390fd5b61063d8282610cff565b5050565b6000600281111561065557610654611f8c565b5b600660149054906101000a900460ff16600281111561067757610676611f8c565b5b146106b7576040517f08c379a00000000000000000000000000000000000000000000000000000000081526004016106ae90611aa0565b60405180910390fd5b6106bf61035b565b341015610701576040517f08c379a00000000000000000000000000000000000000000000000000000000081526004016106f890611a60565b60405180910390fd5b6002339080600181540180825580915050600190039060005260206000200160009091909190916101000a81548173ffffffffffffffffffffffffffffffffffffffff021916908373ffffffffffffffffffffffffffffffffffffffff1602179055507fc6d09ff791e2e8f6ff729c07c5b2cd0c9ee53816b18c0ff61ba2a0b639e0b66133604051610793919061180b565b60405180910390a1565b60006107a7610c31565b73ffffffffffffffffffffffffffffffffffffffff166107c561057b565b73ffffffffffffffffffffffffffffffffffffffff161461081b576040517f08c379a000000000000000000000000000000000000000000000000000000000815260040161081290611a20565b60405180910390fd5b6007547f000000000000000000000000000000000000000000000000000000000000000073ffffffffffffffffffffffffffffffffffffffff166370a08231306040518263ffffffff1660e01b815260040161087791906117f0565b60206040518083038186803b15801561088f57600080fd5b505afa1580156108a3573d6000803e3d6000fd5b505050506040513d601f19601f820116820180604052508101906108c7919061139e565b1015610908576040517f08c379a00000000000000000000000000000000000000000000000000000000081526004016108ff90611a00565b60405180910390fd5b6001600660146101000a81548160ff0219169083600281111561092e5761092d611f8c565b5b02179055507f3c2f7bf89f775a0d97a062e711389234db0b1d0b65d30615fa3473e7b103be51600660149054906101000a900460ff166040516109719190611972565b60405180910390a1610987600854600754610dc5565b905090565b610994610c31565b73ffffffffffffffffffffffffffffffffffffffff166109b261057b565b73ffffffffffffffffffffffffffffffffffffffff1614610a08576040517f08c379a00000000000000000000000000000000000000000000000000000000081526004016109ff90611a20565b60405180910390fd5b600280811115610a1b57610a1a611f8c565b5b600660149054906101000a900460ff166002811115610a3d57610a3c611f8c565b5b14610a7d576040517f08c379a0000000000000000000000000000000000000000000000000000000008152600401610a7490611a80565b60405180910390fd5b6000600660146101000a81548160ff02191690836002811115610aa357610aa2611f8c565b5b02179055507ff4a79363f382da65bef8b7ea3e03f06d121c43e642bd8000ec2c646ea1cf4fa5600660149054906101000a900460ff16604051610ae69190611944565b60405180910390a1565b6000600360008373ffffffffffffffffffffffffffffffffffffffff1673ffffffffffffffffffffffffffffffffffffffff168152602001908152602001600020549050919050565b610b41610c31565b73ffffffffffffffffffffffffffffffffffffffff16610b5f61057b565b73ffffffffffffffffffffffffffffffffffffffff1614610bb5576040517f08c379a0000000000000000000000000000000000000000000000000000000008152600401610bac90611a20565b60405180910390fd5b600073ffffffffffffffffffffffffffffffffffffffff168173ffffffffffffffffffffffffffffffffffffffff161415610c25576040517f08c379a0000000000000000000000000000000000000000000000000000000008152600401610c1c906119c0565b60405180910390fd5b610c2e81610c39565b50565b600033905090565b6000600160009054906101000a900473ffffffffffffffffffffffffffffffffffffffff16905081600160006101000a81548173ffffffffffffffffffffffffffffffffffffffff021916908373ffffffffffffffffffffffffffffffffffffffff1602179055508173ffffffffffffffffffffffffffffffffffffffff168173ffffffffffffffffffffffffffffffffffffffff167f8be0079c531659141344cd1fd0a4f28419497f9722a3daafe3b4186f6b6457e060405160405180910390a35050565b60016002811115610d1357610d12611f8c565b5b600660149054906101000a900460ff166002811115610d3557610d34611f8c565b5b14610d75576040517f08c379a0000000000000000000000000000000000000000000000000000000008152600401610d6c906119a0565b60405180910390fd5b60008111610db8576040517f08c379a0000000000000000000000000000000000000000000000000000000008152600401610daf906119e0565b60405180910390fd5b610dc181610f24565b5050565b60007f000000000000000000000000000000000000000000000000000000000000000073ffffffffffffffffffffffffffffffffffffffff16634000aea07f000000000000000000000000000000000000000000000000000000000000000084866000604051602001610e399291906118d6565b6040516020818303038152906040526040518463ffffffff1660e01b8152600401610e6693929190611839565b602060405180830381600087803b158015610e8057600080fd5b505af1158015610e94573d6000803e3d6000fd5b505050506040513d601f19601f82011682018060405250810190610eb89190611331565b506000610eda8460003060008089815260200190815260200160002054611146565b9050600160008086815260200190815260200160002054610efb9190611b7a565b60008086815260200190815260200160002081905550610f1b8482611182565b91505092915050565b6002600660146101000a81548160ff02191690836002811115610f4a57610f49611f8c565b5b0217905550600060028054905082610f629190611efd565b9050600060028281548110610f7a57610f79611fbb565b5b9060005260206000200160009054906101000a900473ffffffffffffffffffffffffffffffffffffffff16905060004790508173ffffffffffffffffffffffffffffffffffffffff166108fc829081150290604051600060405180830381858888f19350505050158015610ff2573d6000803e3d6000fd5b50600067ffffffffffffffff81111561100e5761100d611fea565b5b60405190808252806020026020018201604052801561103c5781602001602082028036833780820191505090505b50600290805190602001906110529291906111b5565b5080600360008473ffffffffffffffffffffffffffffffffffffffff1673ffffffffffffffffffffffffffffffffffffffff168152602001908152602001600020819055506004829080600181540180825580915050600190039060005260206000200160009091909190916101000a81548173ffffffffffffffffffffffffffffffffffffffff021916908373ffffffffffffffffffffffffffffffffffffffff1602179055507f8838e2e8b24457355cdbf32b5c70eca471a36484c410c1ce37f02bc5a37bc2aa600660149054906101000a900460ff166040516111389190611972565b60405180910390a150505050565b60008484848460405160200161115f94939291906118ff565b6040516020818303038152906040528051906020012060001c9050949350505050565b600082826040516020016111979291906117c4565b60405160208183030381529060405280519060200120905092915050565b82805482825590600052602060002090810192821561122e579160200282015b8281111561122d5782518260006101000a81548173ffffffffffffffffffffffffffffffffffffffff021916908373ffffffffffffffffffffffffffffffffffffffff160217905550916020019190600101906111d5565b5b50905061123b919061123f565b5090565b5b80821115611258576000816000905550600101611240565b5090565b60008135905061126b816123b8565b92915050565b600081519050611280816123cf565b92915050565b600081359050611295816123e6565b92915050565b6000815190506112aa816123fd565b92915050565b6000813590506112bf81612414565b92915050565b6000815190506112d481612414565b92915050565b6000815190506112e981612442565b92915050565b6000815190506112fe8161242b565b92915050565b60006020828403121561131a57611319612019565b5b60006113288482850161125c565b91505092915050565b60006020828403121561134757611346612019565b5b600061135584828501611271565b91505092915050565b6000806040838503121561137557611374612019565b5b600061138385828601611286565b9250506020611394858286016112b0565b9150509250929050565b6000602082840312156113b4576113b3612019565b5b60006113c2848285016112c5565b91505092915050565b600080600080600060a086880312156113e7576113e6612019565b5b60006113f5888289016112da565b95505060206114068882890161129b565b9450506040611417888289016112c5565b9350506060611428888289016112c5565b9250506080611439888289016112da565b9150509295509295909350565b60006020828403121561145c5761145b612019565b5b600061146a848285016112ef565b91505092915050565b600061147f83836114a3565b60208301905092915050565b600061149783836114b2565b60208301905092915050565b6114ac81611e12565b82525050565b6114bb81611e00565b82525050565b6114ca81611e00565b82525050565b60006114db82611afb565b6114e58185611b36565b93506114f083611adb565b8060005b83811015611521578151611508888261148b565b975061151383611b1c565b9250506001810190506114f4565b5085935050505092915050565b600061153982611b06565b6115438185611b47565b935061154e83611aeb565b8060005b8381101561157f5781516115668882611473565b975061157183611b29565b925050600181019050611552565b5085935050505092915050565b61159581611e30565b82525050565b6115ac6115a782611e30565b611ee9565b82525050565b60006115bd82611b11565b6115c78185611b58565b93506115d7818560208601611eb6565b6115e08161201e565b840191505092915050565b6115f481611ea4565b82525050565b6000611607603a83611b69565b91506116128261203c565b604082019050919050565b600061162a601783611b69565b91506116358261208b565b602082019050919050565b600061164d602683611b69565b9150611658826120b4565b604082019050919050565b6000611670602983611b69565b915061167b82612103565b604082019050919050565b6000611693602b83611b69565b915061169e82612152565b604082019050919050565b60006116b6604d83611b69565b91506116c1826121a1565b606082019050919050565b60006116d9602083611b69565b91506116e482612216565b602082019050919050565b60006116fc601f83611b69565b91506117078261223f565b602082019050919050565b600061171f603d83611b69565b915061172a82612268565b604082019050919050565b6000611742601283611b69565b915061174d826122b7565b602082019050919050565b6000611765603a83611b69565b9150611770826122e0565b604082019050919050565b6000611788604183611b69565b91506117938261232f565b606082019050919050565b6117a781611e77565b82525050565b6117be6117b982611e77565b611ef3565b82525050565b60006117d0828561159b565b6020820191506117e082846117ad565b6020820191508190509392505050565b600060208201905061180560008301846114c1565b92915050565b600060408201905061182060008301846114c1565b818103602083015261183181611663565b905092915050565b600060608201905061184e60008301866114c1565b61185b602083018561179e565b818103604083015261186d81846115b2565b9050949350505050565b6000602082019050818103600083015261189181846114d0565b905092915050565b600060208201905081810360008301526118b3818461152e565b905092915050565b60006020820190506118d0600083018461158c565b92915050565b60006040820190506118eb600083018561158c565b6118f8602083018461179e565b9392505050565b6000608082019050611914600083018761158c565b611921602083018661179e565b61192e60408301856114c1565b61193b606083018461179e565b95945050505050565b600060408201905061195960008301846115eb565b818103602083015261196a8161161d565b905092915050565b600060408201905061198760008301846115eb565b818103602083015261199881611735565b905092915050565b600060208201905081810360008301526119b9816115fa565b9050919050565b600060208201905081810360008301526119d981611640565b9050919050565b600060208201905081810360008301526119f981611686565b9050919050565b60006020820190508181036000830152611a19816116a9565b9050919050565b60006020820190508181036000830152611a39816116cc565b9050919050565b60006020820190508181036000830152611a59816116ef565b9050919050565b60006020820190508181036000830152611a7981611712565b9050919050565b60006020820190508181036000830152611a9981611758565b9050919050565b60006020820190508181036000830152611ab98161177b565b9050919050565b6000602082019050611ad5600083018461179e565b92915050565b6000819050602082019050919050565b6000819050602082019050919050565b600081519050919050565b600081519050919050565b600081519050919050565b6000602082019050919050565b6000602082019050919050565b600082825260208201905092915050565b600082825260208201905092915050565b600082825260208201905092915050565b600082825260208201905092915050565b6000611b8582611e77565b9150611b9083611e77565b9250827fffffffffffffffffffffffffffffffffffffffffffffffffffffffffffffffff03821115611bc557611bc4611f2e565b5b828201905092915050565b6000611bdb82611e77565b9150611be683611e77565b925082611bf657611bf5611f5d565b5b828204905092915050565b6000808291508390505b6001851115611c4b57808604811115611c2757611c26611f2e565b5b6001851615611c365780820291505b8081029050611c448561202f565b9450611c0b565b94509492505050565b6000611c5f82611e77565b9150611c6a83611e81565b9250611c977fffffffffffffffffffffffffffffffffffffffffffffffffffffffffffffffff8484611c9f565b905092915050565b600082611caf5760019050611d6b565b81611cbd5760009050611d6b565b8160018114611cd35760028114611cdd57611d0c565b6001915050611d6b565b60ff841115611cef57611cee611f2e565b5b8360020a915084821115611d0657611d05611f2e565b5b50611d6b565b5060208310610133831016604e8410600b8410161715611d415782820a905083811115611d3c57611d3b611f2e565b5b611d6b565b611d4e8484846001611c01565b92509050818404811115611d6557611d64611f2e565b5b81810290505b9392505050565b6000611d7d82611e77565b9150611d8883611e77565b9250817fffffffffffffffffffffffffffffffffffffffffffffffffffffffffffffffff0483118215151615611dc157611dc0611f2e565b5b828202905092915050565b6000611dd782611e81565b9150611de283611e81565b925082821015611df557611df4611f2e565b5b828203905092915050565b6000611e0b82611e57565b9050919050565b6000611e1d82611e57565b9050919050565b60008115159050919050565b6000819050919050565b6000819050611e48826123a4565b919050565b6000819050919050565b600073ffffffffffffffffffffffffffffffffffffffff82169050919050565b6000819050919050565b600060ff82169050919050565b600069ffffffffffffffffffff82169050919050565b6000611eaf82611e3a565b9050919050565b60005b83811015611ed4578082015181840152602081019050611eb9565b83811115611ee3576000848401525b50505050565b6000819050919050565b6000819050919050565b6000611f0882611e77565b9150611f1383611e77565b925082611f2357611f22611f5d565b5b828206905092915050565b7f4e487b7100000000000000000000000000000000000000000000000000000000600052601160045260246000fd5b7f4e487b7100000000000000000000000000000000000000000000000000000000600052601260045260246000fd5b7f4e487b7100000000000000000000000000000000000000000000000000000000600052602160045260246000fd5b7f4e487b7100000000000000000000000000000000000000000000000000000000600052603260045260246000fd5b7f4e487b7100000000000000000000000000000000000000000000000000000000600052604160045260246000fd5b600080fd5b6000601f19601f8301169050919050565b60008160011c9050919050565b7f52657175697265204572726f723a2063616c63756c61746552616e646f6d6e6560008201527f73732066756e6374696f6e20776173206e6f742063616c6c6564000000000000602082015250565b7f4576656e743a205374617274696e67204c6f7474657279000000000000000000600082015250565b7f4f776e61626c653a206e6577206f776e657220697320746865207a65726f206160008201527f6464726573730000000000000000000000000000000000000000000000000000602082015250565b7f4576656e743a205375636365737366756c6c7920426f75676874204c6f74746560008201527f7279205469636b65720000000000000000000000000000000000000000000000602082015250565b7f52657175697265204572726f723a2052616e646f6d204e756d6265722063616e60008201527f6e6f74206265207a65726f000000000000000000000000000000000000000000602082015250565b7f52657175697265204572726f723a20536d61727420436f6e7472616374204e6f60008201527f7420656e6f756768204c494e4b202d2066696c6c20636f6e747261637420776960208201527f7468206c696e6b20746f6b656e00000000000000000000000000000000000000604082015250565b7f4f776e61626c653a2063616c6c6572206973206e6f7420746865206f776e6572600082015250565b7f4f6e6c7920565246436f6f7264696e61746f722063616e2066756c66696c6c00600082015250565b7f52657175697265204572726f723a204e6f7420456e6f756768204665652c204d60008201527f696e696d756d20456e7472616e63652046656520697320555344313030000000602082015250565b7f4576656e743a20456e64204c6f74746572790000000000000000000000000000600082015250565b7f52657175697265204572726f723a2043757272656e74204c6f7474657279205360008201527f74617465206973206e6f7420636c6f7373696e67207374617465000000000000602082015250565b7f52657175697265204572726f723a2043757272656e74206c6f7474657279206760008201527f616d652077617320636c6f73652c207761697420666f72206e6578742067616d60208201527f6500000000000000000000000000000000000000000000000000000000000000604082015250565b600381106123b5576123b4611f8c565b5b50565b6123c181611e00565b81146123cc57600080fd5b50565b6123d881611e24565b81146123e357600080fd5b50565b6123ef81611e30565b81146123fa57600080fd5b50565b61240681611e4d565b811461241157600080fd5b50565b61241d81611e77565b811461242857600080fd5b50565b61243481611e81565b811461243f57600080fd5b50565b61244b81611e8e565b811461245657600080fd5b5056fea2646970667358221220d77813f66feb20b280cd2544d834f40d7926f0ec7cbb61ce43ff0e7f97112b8e64736f6c63430008070033",
  "immutableReferences": {
    "73": [
      {
        "length": 32,
        "start": 2080
      },
      {
        "length": 32,
        "start": 3529
      }
    ],
    "75": [
      {
        "length": 32,
        "start": 1447
      },
      {
        "length": 32,
        "start": 3589
      }
    ]
  },
  "source": "// SPDX-License-Identifier: GPL-3.0\r\npragma solidity 0.8.7;\r\n\r\nimport \"@chainlink/contracts/src/v0.8/interfaces/AggregatorV3Interface.sol\";\r\nimport \"@openzeppelin/contracts/access/Ownable.sol\";\r\nimport \"@chainlink/contracts/src/v0.8/VRFConsumerBase.sol\";\r\n\r\ncontract Lottery is VRFConsumerBase, Ownable {\r\n    //Allow people to invest into the lottery\r\n\r\n    address payable[] players;\r\n\r\n    //Winner address and amount win\r\n    mapping(address => uint256) winnerHistory;\r\n    address[] winnerAddress;\r\n\r\n    uint256 entranceFeeInUsd;\r\n    AggregatorV3Interface priceFeed;\r\n\r\n    enum LotteryState {\r\n        START,\r\n        FINDING_WINNER,\r\n        CLOSE\r\n    }\r\n\r\n    LotteryState lotteryState;\r\n\r\n    uint256 chainLinkFee;\r\n    bytes32 chainLinkKeyHash;\r\n\r\n    //Event for lottery start and lottery end\r\n    event SuccessfullyBoughtLotteryTicket(\r\n        address playerAddress,\r\n        string message\r\n    );\r\n    event LotteryStart(LotteryState _lotteryState, string _message);\r\n    event LotteryFindingWinner(LotteryState _lotteryState, string _message);\r\n    event LotteryClose(LotteryState _lotteryState, string _message);\r\n\r\n    constructor(\r\n        address _chainlinkPriceFeedAddress,\r\n        address _chainLinkVRFCoordinator,\r\n        address _chainLinkTokenAddress,\r\n        uint256 _chainLinkFee,\r\n        bytes32 _chainLinkKeyHash\r\n    ) VRFConsumerBase(_chainLinkVRFCoordinator, _chainLinkTokenAddress) {\r\n        lotteryState = LotteryState.CLOSE;\r\n\r\n        //100usd\r\n        entranceFeeInUsd = 100 * (10**18);\r\n        priceFeed = AggregatorV3Interface(_chainlinkPriceFeedAddress);\r\n\r\n        chainLinkFee = _chainLinkFee;\r\n        chainLinkKeyHash = _chainLinkKeyHash;\r\n    }\r\n\r\n    function buyLotteryTicket() public payable {\r\n        require(\r\n            lotteryState == LotteryState.START,\r\n            \"Require Error: Current lottery game was close, wait for next game\"\r\n        );\r\n\r\n        require(\r\n            msg.value >= getEntranceFeeInEth(),\r\n            \"Require Error: Not Enough Fee, Minimum Entrance Fee is USD100\"\r\n        );\r\n\r\n        players.push(payable(msg.sender));\r\n\r\n        emit SuccessfullyBoughtLotteryTicket(\r\n            msg.sender,\r\n            \"Event: Successfully Bought Lottery Ticker\"\r\n        );\r\n    }\r\n\r\n    function getEntranceFeeInEth() public view returns (uint256) {\r\n        uint8 decimal = priceFeed.decimals();\r\n        (, int256 answer, , , ) = priceFeed.latestRoundData();\r\n        return\r\n            (entranceFeeInUsd * 10**18) /\r\n            (uint256(answer) * (10**(18 - decimal)));\r\n    }\r\n\r\n    //Start the lottery\r\n    // Set a timer for the lottery\r\n    function lotteryStart() public onlyOwner {\r\n        require(\r\n            lotteryState == LotteryState.CLOSE,\r\n            \"Require Error: Current Lottery State is not clossing state\"\r\n        );\r\n        lotteryState = LotteryState.START;\r\n\r\n        emit LotteryStart(lotteryState, \"Event: Starting Lottery\");\r\n    }\r\n\r\n    //Calculate the randomess, using chainlink method\r\n    function calculateRandomNumber()\r\n        public\r\n        onlyOwner\r\n        returns (bytes32 requestId)\r\n    {\r\n        require(\r\n            LINK.balanceOf(address(this)) >= chainLinkFee,\r\n            \"Require Error: Smart Contract Not enough LINK - fill contract with link token\"\r\n        );\r\n        lotteryState = LotteryState.FINDING_WINNER;\r\n        emit LotteryFindingWinner(lotteryState, \"Event: End Lottery\");\r\n        return requestRandomness(chainLinkKeyHash, chainLinkFee);\r\n    }\r\n\r\n    //chainlink callback function (compulsory)\r\n    function fulfillRandomness(bytes32 _requestId, uint256 _randomness)\r\n        internal\r\n        override\r\n    {\r\n        require(\r\n            lotteryState == LotteryState.FINDING_WINNER,\r\n            \"Require Error: calculateRandomness function was not called\"\r\n        );\r\n        require(_randomness > 0, \"Require Error: Random Number cannot be zero\");\r\n        lotteryEnd(_randomness);\r\n    }\r\n\r\n    //End the lottery\r\n    //Close the lottery\r\n    //Find the winner\r\n    //Send him money\r\n    function lotteryEnd(uint256 _randomNumber) internal {\r\n        lotteryState = LotteryState.CLOSE;\r\n        uint256 winnerIndex = _randomNumber % players.length;\r\n        address payable winner = players[winnerIndex];\r\n\r\n        uint256 amountWin = address(this).balance;\r\n        winner.transfer(amountWin);\r\n\r\n        //Reset\r\n        players = new address payable[](0);\r\n\r\n        //Record\r\n        winnerHistory[winner] = amountWin;\r\n        winnerAddress.push(winner);\r\n\r\n        emit LotteryClose(lotteryState, \"Event: End Lottery\");\r\n    }\r\n\r\n    function getWinnerAmount(address _winnerAddress)\r\n        public\r\n        view\r\n        returns (uint256)\r\n    {\r\n        return winnerHistory[_winnerAddress];\r\n    }\r\n\r\n    function getWinnderAddress() public view returns (address[] memory) {\r\n        return winnerAddress;\r\n    }\r\n\r\n    function getPlayer() public view returns (address payable[] memory) {\r\n        return players;\r\n    }\r\n}\r\n",
  "sourcePath": "D:\\Users\\yesla\\Desktop\\solidityworkspace\\lotterycontract\\contracts\\Lottery.sol",
  "compiler": {
    "name": "solc",
    "version": "0.8.7+commit.e28d00a7.Emscripten.clang"
  },
  "schemaVersion": "3.4.3",
  "updatedAt": "2021-09-21T07:35:21.792Z",
  "networkType": "ethereum",
  "devdoc": {
    "kind": "dev",
    "methods": {
      "owner()": {
        "details": "Returns the address of the current owner."
      },
      "renounceOwnership()": {
        "details": "Leaves the contract without owner. It will not be possible to call `onlyOwner` functions anymore. Can only be called by the current owner. NOTE: Renouncing ownership will leave the contract without an owner, thereby removing any functionality that is only available to the owner."
      },
      "transferOwnership(address)": {
        "details": "Transfers ownership of the contract to a new account (`newOwner`). Can only be called by the current owner."
      }
    },
    "version": 1
  },
  "userdoc": {
    "kind": "user",
    "methods": {},
    "version": 1
  }
}