{
  "contractName": "VRFCoordinatorMock",
  "abi": [
    {
      "inputs": [
        {
          "internalType": "address",
          "name": "linkAddress",
          "type": "address"
        }
      ],
      "stateMutability": "nonpayable",
      "type": "constructor"
    },
    {
      "anonymous": false,
      "inputs": [
        {
          "indexed": true,
          "internalType": "address",
          "name": "sender",
          "type": "address"
        },
        {
          "indexed": true,
          "internalType": "bytes32",
          "name": "keyHash",
          "type": "bytes32"
        },
        {
          "indexed": true,
          "internalType": "uint256",
          "name": "seed",
          "type": "uint256"
        }
      ],
      "name": "RandomnessRequest",
      "type": "event"
    },
    {
      "inputs": [],
      "name": "LINK",
      "outputs": [
        {
          "internalType": "contract LinkTokenInterface",
          "name": "",
          "type": "address"
        }
      ],
      "stateMutability": "view",
      "type": "function",
      "constant": true
    },
    {
      "inputs": [
        {
          "internalType": "address",
          "name": "sender",
          "type": "address"
        },
        {
          "internalType": "uint256",
          "name": "fee",
          "type": "uint256"
        },
        {
          "internalType": "bytes",
          "name": "_data",
          "type": "bytes"
        }
      ],
      "name": "onTokenTransfer",
      "outputs": [],
      "stateMutability": "nonpayable",
      "type": "function"
    },
    {
      "inputs": [
        {
          "internalType": "bytes32",
          "name": "requestId",
          "type": "bytes32"
        },
        {
          "internalType": "uint256",
          "name": "randomness",
          "type": "uint256"
        },
        {
          "internalType": "address",
          "name": "consumerContract",
          "type": "address"
        }
      ],
      "name": "callBackWithRandomness",
      "outputs": [],
      "stateMutability": "nonpayable",
      "type": "function"
    }
  ],
  "bytecode": "0x608060405234801561001057600080fd5b506040516105c43803806105c48339818101604052602081101561003357600080fd5b8101908080519060200190929190505050806000806101000a81548173ffffffffffffffffffffffffffffffffffffffff021916908373ffffffffffffffffffffffffffffffffffffffff16021790555050610530806100946000396000f3fe608060405234801561001057600080fd5b50600436106100415760003560e01c80631b6b6d2314610046578063a4c0ed3614610090578063cf55fe9714610175575b600080fd5b61004e6101cd565b604051808273ffffffffffffffffffffffffffffffffffffffff1673ffffffffffffffffffffffffffffffffffffffff16815260200191505060405180910390f35b610173600480360360608110156100a657600080fd5b81019080803573ffffffffffffffffffffffffffffffffffffffff16906020019092919080359060200190929190803590602001906401000000008111156100ed57600080fd5b8201836020820111156100ff57600080fd5b8035906020019184600183028401116401000000008311171561012157600080fd5b91908080601f016020809104026020016040519081016040528093929190818152602001838380828437600081840152601f19601f8201169050808301925050505050505091929192905050506101f2565b005b6101cb6004803603606081101561018b57600080fd5b810190808035906020019092919080359060200190929190803573ffffffffffffffffffffffffffffffffffffffff169060200190929190505050610337565b005b6000809054906101000a900473ffffffffffffffffffffffffffffffffffffffff1681565b6000809054906101000a900473ffffffffffffffffffffffffffffffffffffffff1673ffffffffffffffffffffffffffffffffffffffff163373ffffffffffffffffffffffffffffffffffffffff16146102b4576040517f08c379a00000000000000000000000000000000000000000000000000000000081526004018080602001828103825260138152602001807f4d75737420757365204c494e4b20746f6b656e0000000000000000000000000081525060200191505060405180910390fd5b6000808280602001905160408110156102cc57600080fd5b8101908080519060200190929190805190602001909291905050509150915080828673ffffffffffffffffffffffffffffffffffffffff167f7a9a0a6960d95b32cded93c30e63e7c2eb9e877230813c172110ea54dc1c915c60405160405180910390a45050505050565b600060606394985ddd60e01b85856040516024018083815260200182815260200192505050604051602081830303815290604052907bffffffffffffffffffffffffffffffffffffffffffffffffffffffff19166020820180517bffffffffffffffffffffffffffffffffffffffffffffffffffffffff838183161783525050505090506000620324b09050805a1015610439576040517f08c379a000000000000000000000000000000000000000000000000000000000815260040180806020018281038252601b8152602001807f6e6f7420656e6f7567682067617320666f7220636f6e73756d6572000000000081525060200191505060405180910390fd5b60008473ffffffffffffffffffffffffffffffffffffffff16836040518082805190602001908083835b602083106104865780518252602082019150602081019050602083039250610463565b6001836020036101000a0380198251168184511680821785525050505050509050019150506000604051808303816000865af19150503d80600081146104e8576040519150601f19603f3d011682016040523d82523d6000602084013e6104ed565b606091505b505090505050505050505056fea26469706673582212203e3b12ebd5e12b122c269ba8eb3b4d76a1a7a60a391b96de6f949a439dc48da964736f6c63430006060033",
  "immutableReferences": {},
  "source": "// SPDX-License-Identifier: MIT\r\npragma solidity 0.6.6;\r\n\r\nimport \"@chainlink/contracts/src/v0.6/interfaces/LinkTokenInterface.sol\";\r\nimport \"@chainlink/contracts/src/v0.6/VRFConsumerBase.sol\";\r\n\r\ncontract VRFCoordinatorMock {\r\n    LinkTokenInterface public LINK;\r\n\r\n    event RandomnessRequest(\r\n        address indexed sender,\r\n        bytes32 indexed keyHash,\r\n        uint256 indexed seed\r\n    );\r\n\r\n    constructor(address linkAddress) public {\r\n        LINK = LinkTokenInterface(linkAddress);\r\n    }\r\n\r\n    function onTokenTransfer(\r\n        address sender,\r\n        uint256 fee,\r\n        bytes memory _data\r\n    ) public onlyLINK {\r\n        (bytes32 keyHash, uint256 seed) = abi.decode(_data, (bytes32, uint256));\r\n        emit RandomnessRequest(sender, keyHash, seed);\r\n    }\r\n\r\n    function callBackWithRandomness(\r\n        bytes32 requestId,\r\n        uint256 randomness,\r\n        address consumerContract\r\n    ) public {\r\n        VRFConsumerBase v;\r\n        bytes memory resp = abi.encodeWithSelector(\r\n            v.rawFulfillRandomness.selector,\r\n            requestId,\r\n            randomness\r\n        );\r\n        uint256 b = 206000;\r\n        require(gasleft() >= b, \"not enough gas for consumer\");\r\n        (bool success, ) = consumerContract.call(resp);\r\n    }\r\n\r\n    modifier onlyLINK() {\r\n        require(msg.sender == address(LINK), \"Must use LINK token\");\r\n        _;\r\n    }\r\n}\r\n",
  "sourcePath": "D:\\Users\\yesla\\Desktop\\solidityworkspace\\lotterycontract\\contracts\\test\\VRFCoordinatorMock.sol",
  "compiler": {
    "name": "solc",
    "version": "0.6.6+commit.6c089d02.Emscripten.clang"
  },
  "schemaVersion": "3.4.3",
  "updatedAt": "2021-09-21T07:35:21.802Z",
  "networkType": "ethereum",
  "devdoc": {
    "methods": {}
  },
  "userdoc": {
    "methods": {}
  }
}